:10010600AD071FED60137E59EED3940040F27DE6F5
:090116007C0CDCFEDDFA1E80EF1A
:01011F0022BD
:0E012000C202C201E4F50CF50DF50EF50F223A
:10000E00E4F5B175B209D2B1C2B3C2B0F589758E3D
:10001E0080F58A758CFAD28CD2A9D2B9D2AF1201E0
:10002E002030001EC20030B119C2A9D2B3D2B07FA7
:10003E0032120106C2B3C2B07F1E12010612012097
:10004E00D2A93003DCC203C28C0508E508D39402A2
:10005E004003E4F508E50814600F146014240270E0
:10006E0016E4F58A758CFA800EE4F58A758CFD809F
:0E007E0006E4F58A758CF4120120D28C80A362
:03000B0002008C64
:10008C00C0E0C0D0300223150CE50C7028750C03B1
:10009C00D50B0985090AC202D2018019E509C313DF
:1000AC00F50930B410430980800B20B408D20275D6
:1000BC000C04750B09300124C201E50AB47F1A0542
:1000CC000DE50DD394014006750E00750F00E50D7E
:1000DC00D394644007D2008003750D00050FE50F23
:1000EC007002050ED39458E50E94024008750E006C
:0A00FC00750F00D203D0D0D0E0321F
:0300000002012ECC
:0C012E00787FE4F6D8FD75812002000EF9
:00000001FF
